{
    "contractName": "ExampleContract",
    "abi": [
        {
            "inputs": [],
            "payable": false,
            "stateMutability": "nonpayable",
            "type": "constructor"
        },
        {
            "anonymous": false,
            "inputs": [
                {
                    "indexed": false,
                    "internalType": "address",
                    "name": "token",
                    "type": "address"
                },
                {
                    "indexed": false,
                    "internalType": "address",
                    "name": "coin",
                    "type": "address"
                }
            ],
            "name": "SetupCoin",
            "type": "event"
        },
        {
            "payable": true,
            "stateMutability": "payable",
            "type": "fallback"
        },
        {
            "constant": false,
            "inputs": [
                {
                    "internalType": "address",
                    "name": "tokenaddr",
                    "type": "address"
                },
                {
                    "internalType": "address",
                    "name": "tcontract",
                    "type": "address"
                }
            ],
            "name": "approveToken",
            "outputs": [],
            "payable": false,
            "stateMutability": "nonpayable",
            "type": "function"
        },
        {
            "constant": true,
            "inputs": [
                {
                    "internalType": "address",
                    "name": "_input",
                    "type": "address"
                }
            ],
            "name": "getBalanceOf",
            "outputs": [
                {
                    "internalType": "uint256",
                    "name": "",
                    "type": "uint256"
                }
            ],
            "payable": false,
            "stateMutability": "view",
            "type": "function"
        },
        {
            "constant": true,
            "inputs": [],
            "name": "lastAmount",
            "outputs": [
                {
                    "internalType": "uint256",
                    "name": "",
                    "type": "uint256"
                }
            ],
            "payable": false,
            "stateMutability": "view",
            "type": "function"
        },
        {
            "constant": true,
            "inputs": [],
            "name": "lastTokenBorrow",
            "outputs": [
                {
                    "internalType": "address",
                    "name": "",
                    "type": "address"
                }
            ],
            "payable": false,
            "stateMutability": "view",
            "type": "function"
        },
        {
            "constant": true,
            "inputs": [],
            "name": "lastTokenPay",
            "outputs": [
                {
                    "internalType": "address",
                    "name": "",
                    "type": "address"
                }
            ],
            "payable": false,
            "stateMutability": "view",
            "type": "function"
        },
        {
            "constant": true,
            "inputs": [],
            "name": "lastUserData",
            "outputs": [
                {
                    "internalType": "bytes",
                    "name": "",
                    "type": "bytes"
                }
            ],
            "payable": false,
            "stateMutability": "view",
            "type": "function"
        },
        {
            "constant": true,
            "inputs": [],
            "name": "lastamountToRepay",
            "outputs": [
                {
                    "internalType": "uint256",
                    "name": "",
                    "type": "uint256"
                }
            ],
            "payable": false,
            "stateMutability": "view",
            "type": "function"
        },
        {
            "constant": true,
            "inputs": [],
            "name": "oinStake",
            "outputs": [
                {
                    "internalType": "contract IOinStake",
                    "name": "",
                    "type": "address"
                }
            ],
            "payable": false,
            "stateMutability": "view",
            "type": "function"
        },
        {
            "constant": false,
            "inputs": [
                {
                    "internalType": "address",
                    "name": "osaddr",
                    "type": "address"
                }
            ],
            "name": "setup",
            "outputs": [],
            "payable": false,
            "stateMutability": "nonpayable",
            "type": "function"
        },
        {
            "constant": false,
            "inputs": [
                {
                    "internalType": "uint256",
                    "name": "_amount",
                    "type": "uint256"
                },
                {
                    "internalType": "uint256",
                    "name": "num",
                    "type": "uint256"
                }
            ],
            "name": "testLoop",
            "outputs": [],
            "payable": false,
            "stateMutability": "nonpayable",
            "type": "function"
        },
        {
            "constant": false,
            "inputs": [
                {
                    "internalType": "address",
                    "name": "_sender",
                    "type": "address"
                },
                {
                    "internalType": "uint256",
                    "name": "_amount0",
                    "type": "uint256"
                },
                {
                    "internalType": "uint256",
                    "name": "_amount1",
                    "type": "uint256"
                },
                {
                    "internalType": "bytes",
                    "name": "_data",
                    "type": "bytes"
                }
            ],
            "name": "uniswapV2Call",
            "outputs": [],
            "payable": false,
            "stateMutability": "nonpayable",
            "type": "function"
        }
    ],
    "bytecode": "6080604052600180546001600160a01b0319908116821790915560028054821673d0a1e359811322d97991e03f863a0c30c2cf029c17905560038054909116734f96fe3b7a6cf9725f59d353f723c1bdb64ca6aa17905534801561006257600080fd5b50600d80546001600160a01b03199081163317909155600e8054821673ff30eef97ad64426d7e901a9a49ac07718170ce1179055600f805490911673fd780817f08ae3824dad20fd594b04f7386e7d4d1790556124a0806100c46000396000f3fe60806040526004361061009c5760003560e01c80637538721e116100645780637538721e146102605780637f1e441214610287578063829a86d91461029c578063979002fe146102b15780639b96eece146102c6578063b0996e08146102f95761009c565b806303105b041461009e57806310d1e85c146100d957806311e37ed0146101725780634c573121146101fc57806366d382031461022d575b005b3480156100aa57600080fd5b5061009c600480360360408110156100c157600080fd5b506001600160a01b0381358116916020013516610329565b3480156100e557600080fd5b5061009c600480360360808110156100fc57600080fd5b6001600160a01b03823516916020810135916040820135919081019060808101606082013564010000000081111561013357600080fd5b82018360208201111561014557600080fd5b8035906020019184600183028401116401000000008311171561016757600080fd5b50909250905061043b565b34801561017e57600080fd5b506101876106e4565b6040805160208082528351818301528351919283929083019185019080838360005b838110156101c15781810151838201526020016101a9565b50505050905090810190601f1680156101ee5780820380516001836020036101000a031916815260200191505b509250505060405180910390f35b34801561020857600080fd5b50610211610772565b604080516001600160a01b039092168252519081900360200190f35b34801561023957600080fd5b5061009c6004803603602081101561025057600080fd5b50356001600160a01b0316610781565b34801561026c57600080fd5b50610275610822565b60408051918252519081900360200190f35b34801561029357600080fd5b50610211610828565b3480156102a857600080fd5b50610275610837565b3480156102bd57600080fd5b5061021161083d565b3480156102d257600080fd5b50610275600480360360208110156102e957600080fd5b50356001600160a01b031661084c565b34801561030557600080fd5b5061009c6004803603604081101561031c57600080fd5b50803590602001356108dd565b6040805163095ea7b360e01b81523060048201526a52b7d2dcc80cd2e4000000602482015290516001600160a01b0384169163095ea7b39160448083019260209291908290030181600087803b15801561038257600080fd5b505af1158015610396573d6000803e3d6000fd5b505050506040513d60208110156103ac57600080fd5b50506040805163095ea7b360e01b81526001600160a01b0383811660048301526a52b7d2dcc80cd2e4000000602483015291519184169163095ea7b3916044808201926020929091908290030181600087803b15801561040b57600080fd5b505af115801561041f573d6000803e3d6000fd5b505050506040513d602081101561043557600080fd5b50505050565b6001546001600160a01b031633146104845760405162461bcd60e51b81526004018080602001828103825260298152602001806124436029913960400191505060405180910390fd5b6001600160a01b03851630146104e1576040805162461bcd60e51b815260206004820152601f60248201527f6f6e6c79207468697320636f6e7472616374206d617920696e69746961746500604482015290519081900360640190fd5b60008060008060008060608089896101008110156104fe57600080fd5b60ff823516916001600160a01b036020820135811692604083013592606081013590921691608081013515159160a08201351515919081019060e0810160c082013564010000000081111561055257600080fd5b82018360208201111561056457600080fd5b8035906020019184600183028401116401000000008311171561058657600080fd5b91908080601f01602080910402602001604051908101604052809392919081815260200183838082843760009201919091525092959493602081019350359150506401000000008111156105d957600080fd5b8201836020820111156105eb57600080fd5b8035906020019184600183028401116401000000008311171561060d57600080fd5b91908080601f016020809104026020016040519081016040528093929190818152602001838380828437600081840152601f19601f820116905080830192505050505050509192919290505050975097509750975097509750975097506000600281111561067757fe5b88600281111561068357fe5b14156106a4576106978787338787866109a5565b50505050505050506106dd565b60018860028111156106b257fe5b14156106c75761069787878733888887610b5b565b6106d48787878585610e1b565b50505050505050505b5050505050565b6008805460408051602060026001851615610100026000190190941693909304601f8101849004840282018401909252818152929183018282801561076a5780601f1061073f5761010080835404028352916020019161076a565b820191906000526020600020905b81548152906001019060200180831161074d57829003601f168201915b505050505081565b6004546001600160a01b031681565b600980546001600160a01b038084166001600160a01b031992831617909255600b8054821673a8390686f484c49241c116b39f82108a74af86fc1790819055600a805490921673031ccab6583b2a5abbcc58e48e74e6acafe9c503179182905560408051918416825291909216602083015280517f055d48959ab0a44a3dfe28fcac1d5b64ed25011093fc295336744a51ccfdb5c79281900390910190a150565b60075481565b6006546001600160a01b031681565b60055481565b6009546001600160a01b031681565b60006001600160a01b0382166108635750476108d8565b604080516370a0823160e01b815230600482015290516001600160a01b038416916370a08231916024808301926020929190829003018186803b1580156108a957600080fd5b505afa1580156108bd573d6000803e3d6000fd5b505050506040513d60208110156108d357600080fd5b505190505b919050565b600b54604080516323b872dd60e01b81523360048201523060248201526044810185905290516064848602819004936001600160a01b0316926323b872dd92818301926020928290030181600087803b15801561093957600080fd5b505af115801561094d573d6000803e3d6000fd5b505050506040513d602081101561096357600080fd5b5050600b54600a546040805180820190915260048152630307830360e41b60208201526109a0926001600160a01b0390811692859291169061129f565b505050565b8215610a115760025460408051632e1a7d4d60e01b81526004810188905290516001600160a01b0390921691632e1a7d4d9160248082019260009290919082900301818387803b1580156109f857600080fd5b505af1158015610a0c573d6000803e3d6000fd5b505050505b6103e56003860204600181810191870101600085610a2f5788610a32565b60005b9050600085610a415789610a44565b60005b9050610a53828a83868961135d565b8515610ac357600260009054906101000a90046001600160a01b03166001600160a01b031663d0e30db0846040518263ffffffff1660e01b81526004016000604051808303818588803b158015610aa957600080fd5b505af1158015610abd573d6000803e3d6000fd5b50505050505b896001600160a01b031663a9059cbb89856040518363ffffffff1660e01b815260040180836001600160a01b03166001600160a01b0316815260200182815260200192505050602060405180830381600087803b158015610b2357600080fd5b505af1158015610b37573d6000803e3d6000fd5b505050506040513d6020811015610b4d57600080fd5b505050505050505050505050565b8215610bc75760025460408051632e1a7d4d60e01b81526004810189905290516001600160a01b0390921691632e1a7d4d9160248082019260009290919082900301818387803b158015610bae57600080fd5b505af1158015610bc2573d6000803e3d6000fd5b505050505b600154604080516370a0823160e01b81526001600160a01b039283166004820181905291519192600092908b16916370a08231916024808301926020929190829003018186803b158015610c1a57600080fd5b505afa158015610c2e573d6000803e3d6000fd5b505050506040513d6020811015610c4457600080fd5b5051604080516370a0823160e01b81526001600160a01b0385811660048301529151929350600092918a16916370a0823191602480820192602092909190829003018186803b158015610c9657600080fd5b505afa158015610caa573d6000803e3d6000fd5b505050506040513d6020811015610cc057600080fd5b5051905060006103e583028a83026103e80281610cd957fe5b046001019050600087610cec578b610cef565b60005b9050600087610cfe578a610d01565b60005b9050610d10828d83868b61135d565b8715610d8057600260009054906101000a90046001600160a01b03166001600160a01b031663d0e30db0846040518263ffffffff1660e01b81526004016000604051808303818588803b158015610d6657600080fd5b505af1158015610d7a573d6000803e3d6000fd5b50505050505b8a6001600160a01b031663a9059cbb8b856040518363ffffffff1660e01b815260040180836001600160a01b03166001600160a01b0316815260200182815260200192505050602060405180830381600087803b158015610de057600080fd5b505af1158015610df4573d6000803e3d6000fd5b505050506040513d6020811015610e0a57600080fd5b505050505050505050505050505050565b600080838060200190516040811015610e3357600080fd5b50805160209182015160408051630dfe168160e01b815290519295509093506000926001600160a01b03861692630dfe1681926004808201939291829003018186803b158015610e8257600080fd5b505afa158015610e96573d6000803e3d6000fd5b505050506040513d6020811015610eac57600080fd5b50516040805163d21220a760e01b815290519192506000916001600160a01b0386169163d21220a7916004808301926020929190829003018186803b158015610ef457600080fd5b505afa158015610f08573d6000803e3d6000fd5b505050506040513d6020811015610f1e57600080fd5b5051905060006001600160a01b038a811690841614610f3e576000610f40565b885b90506000826001600160a01b03168b6001600160a01b031614610f64576000610f66565b895b6002546040805163a9059cbb60e01b81526001600160a01b038a81166004830152602482018a9052915193945091169163a9059cbb916044808201926020929091908290030181600087803b158015610fbe57600080fd5b505af1158015610fd2573d6000803e3d6000fd5b505050506040513d6020811015610fe857600080fd5b505060408051602081018083526000808352925163022c0d9f60e01b8152600481018681526024820186905230604483018190526080606484019081528551608485015285516001600160a01b038e169763022c0d9f978b978b979596919591949360a4909201929091908190849084905b8381101561107257818101518382015260200161105a565b50505050905090810190601f16801561109f5780820380516001836020036101000a031916815260200191505b5095505050505050600060405180830381600087803b1580156110c157600080fd5b505af11580156110d5573d6000803e3d6000fd5b5050600154600254604080516370a0823160e01b81526001600160a01b039384166004820181905291519195506000945092909116916370a08231916024808301926020929190829003018186803b15801561113057600080fd5b505afa158015611144573d6000803e3d6000fd5b505050506040513d602081101561115a57600080fd5b5051604080516370a0823160e01b81526001600160a01b0385811660048301529151929350600092918e16916370a0823191602480820192602092909190829003018186803b1580156111ac57600080fd5b505afa1580156111c0573d6000803e3d6000fd5b505050506040513d60208110156111d657600080fd5b5051905060006103e583028983026103e802816111ef57fe5b0460010190506112028f8f8f848f61135d565b8c6001600160a01b031663a9059cbb85836040518363ffffffff1660e01b815260040180836001600160a01b03166001600160a01b0316815260200182815260200192505050602060405180830381600087803b15801561126257600080fd5b505af1158015611276573d6000803e3d6000fd5b505050506040513d602081101561128c57600080fd5b5050505050505050505050505050505050565b60008085846001600160a01b0382166112c557600254600194506001600160a01b031691505b6001600160a01b0381166112e55750600254600192506001600160a01b03165b806001600160a01b0316826001600160a01b031614156113155761130c82888686896114ca565b50505050610435565b6002546001600160a01b038381169116148061133e57506002546001600160a01b038281169116145b156113515761130c82888387878a61195e565b61130c82888388611b9e565b600e546001600160a01b031633146113bc576040805162461bcd60e51b815260206004820152601b60248201527f6973206e6f7420206566632d65746820756e692073656e646572200000000000604482015290519081900360640190fd5b6402540be4006305f5e1006103e86402566e3e0087020404046113e26002860282611ecf565b600a54600d54604080516323b872dd60e01b81526001600160a01b0392831660048201523060248201526127106103eb8a02046044820152905191909216916323b872dd9160648083019260209291908290030181600087803b15801561144857600080fd5b505af115801561145c573d6000803e3d6000fd5b505050506040513d602081101561147257600080fd5b5050600480546001600160a01b038089166001600160a01b03199283161790925560058790556006805492871692909116919091179055600783905581516114c1906008906020850190612338565b50505050505050565b6002546000906001600160a01b038781169116146114f3576002546001600160a01b0316611500565b6003546001600160a01b03165b6000546040805163e6a4390560e01b81526001600160a01b038a811660048301528085166024830152915193945091169163e6a4390591604480820192602092909190829003018186803b15801561155757600080fd5b505afa15801561156b573d6000803e3d6000fd5b505050506040513d602081101561158157600080fd5b5051600180546001600160a01b0319166001600160a01b03928316179081905516806115de5760405162461bcd60e51b81526004018080602001828103825260228152602001806123d46022913960400191505060405180910390fd5b6000816001600160a01b0316630dfe16816040518163ffffffff1660e01b815260040160206040518083038186803b15801561161957600080fd5b505afa15801561162d573d6000803e3d6000fd5b505050506040513d602081101561164357600080fd5b50516040805163d21220a760e01b815290519192506000916001600160a01b0385169163d21220a7916004808301926020929190829003018186803b15801561168b57600080fd5b505afa15801561169f573d6000803e3d6000fd5b505050506040513d60208110156116b557600080fd5b5051905060006001600160a01b038a8116908416146116d55760006116d7565b885b90506000826001600160a01b03168b6001600160a01b0316146116fb5760006116fd565b895b9050606060008c8c8e8d8d604051806020016040528060008152508e6040516020018089600281111561172c57fe5b60ff168152602001886001600160a01b03166001600160a01b03168152602001878152602001866001600160a01b03166001600160a01b0316815260200185151515158152602001841515151581526020018060200180602001838103835285818151815260200191508051906020019080838360005b838110156117bb5781810151838201526020016117a3565b50505050905090810190601f1680156117e85780820380516001836020036101000a031916815260200191505b50838103825284518152845160209182019186019080838360005b8381101561181b578181015183820152602001611803565b50505050905090810190601f1680156118485780820380516001836020036101000a031916815260200191505b509a50505050505050505050506040516020818303038152906040529050856001600160a01b031663022c0d9f848430856040518563ffffffff1660e01b815260040180858152602001848152602001836001600160a01b03166001600160a01b0316815260200180602001828103825283818151815260200191508051906020019080838360005b838110156118e95781810151838201526020016118d1565b50505050905090810190601f1680156119165780820380516001836020036101000a031916815260200191505b5095505050505050600060405180830381600087803b15801561193857600080fd5b505af115801561194c573d6000803e3d6000fd5b50505050505050505050505050505050565b6000546040805163e6a4390560e01b81526001600160a01b03898116600483015287811660248301529151919092169163e6a43905916044808301926020929190829003018186803b1580156119b357600080fd5b505afa1580156119c7573d6000803e3d6000fd5b505050506040513d60208110156119dd57600080fd5b5051600180546001600160a01b0319166001600160a01b0392831617908190551680611a50576040805162461bcd60e51b815260206004820181905260248201527f5265717565737465642070616972206973206e6f7420617661696c61626c652e604482015290519081900360640190fd5b6000816001600160a01b0316630dfe16816040518163ffffffff1660e01b815260040160206040518083038186803b158015611a8b57600080fd5b505afa158015611a9f573d6000803e3d6000fd5b505050506040513d6020811015611ab557600080fd5b50516040805163d21220a760e01b815290519192506000916001600160a01b0385169163d21220a7916004808301926020929190829003018186803b158015611afd57600080fd5b505afa158015611b11573d6000803e3d6000fd5b505050506040513d6020811015611b2757600080fd5b5051905060006001600160a01b038a811690841614611b47576000611b49565b885b90506000826001600160a01b03168b6001600160a01b031614611b6d576000611b6f565b895b9050606060018c8c8c8c8c604051806020016040528060008152508d6040516020018089600281111561172c57fe5b600080546002546040805163e6a4390560e01b81526001600160a01b03898116600483015292831660248201529051919092169163e6a43905916044808301926020929190829003018186803b158015611bf757600080fd5b505afa158015611c0b573d6000803e3d6000fd5b505050506040513d6020811015611c2157600080fd5b505190506001600160a01b038116611c6a5760405162461bcd60e51b81526004018080602001828103825260288152602001806123f66028913960400191505060405180910390fd5b6000546002546040805163e6a4390560e01b81526001600160a01b03878116600483015292831660248201529051919092169163e6a43905916044808301926020929190829003018186803b158015611cc257600080fd5b505afa158015611cd6573d6000803e3d6000fd5b505050506040513d6020811015611cec57600080fd5b5051600180546001600160a01b0319166001600160a01b0392831617908190551680611d495760405162461bcd60e51b815260040180806020018281038252602581526020018061241e6025913960400191505060405180910390fd5b6000866001600160a01b03166370a08231846040518263ffffffff1660e01b815260040180826001600160a01b03166001600160a01b0316815260200191505060206040518083038186803b158015611da157600080fd5b505afa158015611db5573d6000803e3d6000fd5b505050506040513d6020811015611dcb57600080fd5b5051905085811015611e19576040805162461bcd60e51b81526020600482015260126024820152715f616d6f756e7420697320746f6f2062696760701b604482015290519081900360640190fd5b600254604080516370a0823160e01b81526001600160a01b03868116600483015291518985039360009316916370a08231916024808301926020929190829003018186803b158015611e6a57600080fd5b505afa158015611e7e573d6000803e3d6000fd5b505050506040513d6020811015611e9457600080fd5b5051905060006103e583028983026103e80281611ead57fe5b046001019050611ec28a8a8a8989868d611f9d565b5050505050505050505050565b6009546040805163b6b55f2560e01b81526004810185905290516001600160a01b039092169163b6b55f259160248082019260009290919082900301818387803b158015611f1c57600080fd5b505af1158015611f30573d6000803e3d6000fd5b505060095460408051634a7dd52360e01b81526004810186905290516001600160a01b039092169350634a7dd523925060248082019260009290919082900301818387803b158015611f8157600080fd5b505af1158015611f95573d6000803e3d6000fd5b505050505050565b600080846001600160a01b0316630dfe16816040518163ffffffff1660e01b815260040160206040518083038186803b158015611fd957600080fd5b505afa158015611fed573d6000803e3d6000fd5b505050506040513d602081101561200357600080fd5b50516040805163d21220a760e01b815290519192506000916001600160a01b0388169163d21220a7916004808301926020929190829003018186803b15801561204b57600080fd5b505afa15801561205f573d6000803e3d6000fd5b505050506040513d602081101561207557600080fd5b50516002549091506000906001600160a01b0384811691161461209957600061209b565b855b6002549091506000906001600160a01b038481169116146120bd5760006120bf565b865b604080516001600160a01b038c1660208201528082018a905281518082038301815260608281019093529293506002908f908f908f90600090819088908f90608001808960ff168152602001886001600160a01b03166001600160a01b03168152602001878152602001866001600160a01b03166001600160a01b0316815260200185151515158152602001841515151581526020018060200180602001838103835285818151815260200191508051906020019080838360005b8381101561219257818101518382015260200161217a565b50505050905090810190601f1680156121bf5780820380516001836020036101000a031916815260200191505b50838103825284518152845160209182019186019080838360005b838110156121f25781810151838201526020016121da565b50505050905090810190601f16801561221f5780820380516001836020036101000a031916815260200191505b509a50505050505050505050506040516020818303038152906040529050896001600160a01b031663022c0d9f858530856040518563ffffffff1660e01b815260040180858152602001848152602001836001600160a01b03166001600160a01b0316815260200180602001828103825283818151815260200191508051906020019080838360005b838110156122c05781810151838201526020016122a8565b50505050905090810190601f1680156122ed5780820380516001836020036101000a031916815260200191505b5095505050505050600060405180830381600087803b15801561230f57600080fd5b505af1158015612323573d6000803e3d6000fd5b50505050505050505050979650505050505050565b828054600181600116156101000203166002900490600052602060002090601f016020900481019282601f1061237957805160ff19168380011785556123a6565b828001600101855582156123a6579182015b828111156123a657825182559160200191906001019061238b565b506123b29291506123b6565b5090565b6123d091905b808211156123b257600081556001016123bc565b9056fe526571756573746564205f746f6b656e206973206e6f7420617661696c61626c652e52657175657374656420626f72726f7720746f6b656e206973206e6f7420617661696c61626c652e5265717565737465642070617920746f6b656e206973206e6f7420617661696c61626c652e6f6e6c79207065726d697373696f6e656420556e6973776170563220706169722063616e2063616c6ca265627a7a723158200fb659ae8b7a764c882b4f103291223de628c8a9a93aa024b28cf487fc949f3864736f6c63430005110032",
    "sourcePath": "d:/workOfShark/pro/truffle/testloop/contracts/testloop.sol",
    "compiler": {
        "name": "solc",
        "version": "0.5.17+commit.d19bba13"
    },
    "functionHashes": {
        "approveToken(address,address)": "03105b04",
        "getBalanceOf(address)": "9b96eece",
        "lastAmount()": "829a86d9",
        "lastTokenBorrow()": "4c573121",
        "lastTokenPay()": "7f1e4412",
        "lastUserData()": "11e37ed0",
        "lastamountToRepay()": "7538721e",
        "oinStake()": "979002fe",
        "setup(address)": "66d38203",
        "testLoop(uint256,uint256)": "b0996e08",
        "uniswapV2Call(address,uint256,uint256,bytes)": "10d1e85c"
    },
    "gasEstimates": {
        "creation": {
            "codeDepositCost": "1875200",
            "executionCost": "126955",
            "totalCost": "2002155"
        },
        "external": {
            "": "185",
            "approveToken(address,address)": "infinite",
            "getBalanceOf(address)": "infinite",
            "lastAmount()": "1042",
            "lastTokenBorrow()": "1104",
            "lastTokenPay()": "1059",
            "lastUserData()": "infinite",
            "lastamountToRepay()": "998",
            "oinStake()": "1103",
            "setup(address)": "64170",
            "testLoop(uint256,uint256)": "infinite",
            "uniswapV2Call(address,uint256,uint256,bytes)": "infinite"
        },
        "internal": {
            "execute(address,uint256,address,uint256,bytes memory)": "infinite",
            "exedeposit(uint256,uint256)": "infinite"
        }
    }
}